:100000000C9446000C9465000C9465000C946500FB
:100010000C9465000C9465000C9465000C946500CC
:100020000C9465000C948F050C9465000C94690683
:100030000C9465000C9465000C9452060C946500B9
:100040000C9465000C9465000C9465000C9465009C
:100050000C9465000C9465000C9465000C9465008C
:100060000C9465000C9465000C9465000C9465007C
:100070000C9465000C9465000C9465000C9465006C
:100080000C9465000C9465000C94650011241FBE4F
:10009000CFEFD0E1DEBFCDBF11E0A0E0B1E0E6EFF1
:1000A000F8E200E00BBF02C007900D92AE3EB10730
:1000B000D9F712E0AEEEB1E001C01D92A336B10750
:1000C000E1F70E944F030C9479140C940000DE9A1F
:1000D00090E00E947705DE988BB3807F8BBB0895FC
:1000E000CF93C82FDC988BB39C2F92959F70892B50
:1000F0008BBB82E00E9467008BB3CF70C82BCBBB59
:1001000082E00E946700DC9ACF91089581E00E940E
:10011000700081E090E00E947705089582E00E94DF
:10012000700008958FEF8ABB83E08BBBDE9A81E07D
:1001300090E00E947705DE9885E090E00E947705C8
:10014000DE9A81E090E00E947705DE98DE9A81E0F9
:1001500090E00E947705DE9882E08BBB81E00E94F0
:1001600067008BB38BBB81E00E9467008BB38E600E
:100170008BBB81E00E9467008BB38BBB81E00E9448
:1001800067008BB386608BBB81E00E9467008BB3F6
:100190008BBB81E00E946700D89A81E00E946700D3
:1001A000DC9A0E948E00089580EC0E9470000895F1
:1001B00084E90E947000089584ED0E947000089503
:1001C000883618F480680E947000089588E10E94C3
:1001D00070000895CF93C82F8BB39C2F92959F707A
:1001E000892B8BBB81E00E9467008BB3CF70C82B3B
:1001F000CBBB81E00E946700CF910895EF92FF9200
:100200000F931F93CF93DF93E82FF92FEF010990FE
:100210000020E9F72197CE1BDF0B1C161D0674F496
:10022000E82EF92E00E010E0F70181917F010E9495
:10023000EA000F5F1F4FC017D107B1F7DF91CF91D1
:100240001F910F91FF90EF900895CF92DF92EF9260
:10025000FF920F931F93CF93DF93CDB7DEB7C155B6
:10026000D0400FB6F894DEBF0FBECDBFFE01E45AFA
:10027000FF4F41915191CE01019661E570E02E2F23
:100280003F2F0E949A118EEE91E0BE016F5F7F4F6B
:100290000E945311282F392F2115310509F448C028
:1002A0008EEE91E0BE016F5F7F4F0E945C110E9455
:1002B00086006E010894C11CD11C00E010E00F2ED6
:1002C000F4E1EF2EFF24F02D2BC08A3051F4C80149
:1002D000B7010E94BA0F9701281B390B020F131F99
:1002E00004C00E94EA000F5F1F4FC801B7010E94BF
:1002F000BA0F0097A9F4C801B7010E94BA0F623083
:10030000710549F06330710549F06130710541F4C0
:100310000E94D40005C00E94D80002C00E94DC00E8
:10032000F60181916F01882319F0003511056CF2F7
:10033000CF5ADF4F0FB6F894DEBF0FBECDBFDF91AF
:10034000CF911F910F91FF90EF90DF90CF90089584
:1003500081E090E064E370E00E94E10F08950E9464
:1003600095100895EBE9F0E0908195FFFDCF809323
:100370009C00089588E80E94B20181E00E94B201C9
:10038000BF98C79AB79BFECF0895CF93C82F8DE82B
:100390000E94B2018C2F0E94B201CF910895BF92AA
:1003A000CF92DF92EF92FF920F931F93CF93DF9341
:1003B000082F6B01C42FE52ED22FB32E8CE80E949C
:1003C000B201802F0E94B2018C2D0E94B2011C1438
:1003D0001D04A4F40C2F1E2DED2EFB2CC0E0D0E04C
:1003E000F80181918F010E94B201F70181917F0193
:1003F0000E94B2012196CC15DD0591F7DF91CF91D6
:100400001F910F91FF90EF90DF90CF90BF900895D4
:100410000F931F93CF93DF93182F092FC62FD72F3A
:1004200081E90E94B201802F0E94B201812F0E94B7
:10043000B2018D2F0E94B2018C2F0E94B201DF9178
:10044000CF911F910F9108950F931F93CF93DF9337
:10045000182F062FD42FC22F8BE80E94B201002341
:1004600039F081E090E0112329F480E090E002C0AF
:1004700080E090E00E94B2018D2F0E94B2018C2F8B
:100480000E94B201DF91CF911F910F910895EBE986
:10049000F0E080818823ECF780919C000895EF9232
:1004A000FF920F931F93CF93DF937C0180919B006A
:1004B000882344F4ACE9B0E0EBE9F0E08C91808172
:1004C0008823E4F38EE80E94B20186E00E94B20124
:1004D000E701E49687010E944702F80181938F01AA
:1004E000EC17FD07C1F7F701948580E02585820FA1
:1004F000911D95878487968580E02785820F911DC1
:1005000097878687918980E02289820F911D928B3F
:10051000818B938980E02489820F911D948B838B3A
:10052000968980E02789820F911D978B868B908D0D
:1005300080E0218D820F911D918F808F928D80E0C0
:10054000238D820F911D938F828F948D80E0258D56
:10055000820F911D958F848F968D80E0278D820F5D
:10056000911D978F868F90A180E021A1820F911D10
:1005700091A380A392A180E023A1820F911D93A358
:1005800082A382A590E031A520E0280F391F36A371
:1005900025A330A920E0820F931F95A784A792A9D5
:1005A00080E023A9820F911D97A786A794A980E0D8
:1005B00025A9820F911D91AB80AB96A980E027A958
:1005C000820F911D93AB82AB85E090E00E9477058E
:1005D000DF91CF911F910F91FF90EF9008950F93AE
:1005E0001F93CF93DF938C01C9E9D0E080E188832A
:1005F00088E180939A0086E080939D0080E80E94C5
:10060000B20181E80E94B20188E00E94B20184E652
:1006100090E00E94770581E2888384E80E94B2011D
:1006200081E061E047E02FEF0E942402C8010E94B0
:100630004F02C8010E944F02DF91CF911F910F918D
:1006400008950F931F93CF93DF9380914102909170
:1006500042028D309105A9F0C3E4D2E000E010E041
:100660000E940709FE01888319820F5F1F4F22969F
:10067000808191818D30910531F00A30110581F72B
:1006800002C000E010E0F801EE0FFF1FED5BFD4F30
:1006900011821082DF91CF911F910F910895CF9316
:1006A000DF93CDB7DEB7C25FD0400FB6F894DEBFA0
:1006B0000FBECDBF0E94890A2AE1FE013196DF01FB
:1006C000822F1D928A95E9F788E4898393E49A83BF
:1006D00035E43B839C838E839F83388799878B8700
:1006E0008C878D878E87888B898B8A8B8B8B8D8B64
:1006F00097E49E8B8F8B988F898FFE017B96DF010D
:100700001D922A95E9F720E42B8F80E18C8F8D8F45
:100710008E8F98E29F8F28A389A38AA38BA39CA383
:1007200098E09DA39EA38FA388A789A79AA79BA7BC
:100730008CA78DA78EA784E18FA788AB90E299AB99
:100740008AAB80E68BAB0E94630D0F2EF3E4CF2EB5
:10075000F2E0DF2EF02D0F2EF2E84F2EF1E05F2EAB
:10076000F02D0F2EF0E96F2EF1E07F2EF02D0F2EE1
:10077000F5E4AF2EF2E0BF2EF02D88249924689482
:1007800081F88A0C9B1C0F2EFCE42F2EF1E03F2EEB
:10079000F02D0E9421030E94630DF601808191815A
:1007A0008936910509F430C18A36910564F48236A0
:1007B000910509F461C08636910559F1813691059C
:1007C00009F03AC115C08D36910509F42DC18E3658
:1007D00091052CF48C36910509F02EC1B8C08237F2
:1007E000910509F47CC08337910509F025C1E4C067
:1007F00081E60E940B0900D0E0E0F1E0ADB7BEB7A2
:100800001296FC93EE9311970E9425010F900F9082
:100810003FC1D5018C91C751DF4F8883C95ED0405D
:10082000F4018081C651DF4F8883CA5ED0401496A0
:100830008C91C551DF4F8883CB5ED040C451DF4FD0
:100840001882CC5ED040CE0187519F4F0E942E115E
:100850000E94C4098C0100D0EBE3F1E0ADB7BEB754
:100860001296FC93EE9311970E9425010F900F9022
:10087000802F0E940B09E2C0D5018C91C751DF4F38
:100880008883C95ED040F4018081C651DF4F8883E0
:10089000CA5ED04014968C91C551DF4F8883CB5EE1
:1008A000D040C451DF4F1882CC5ED040CE0187517A
:1008B0009F4F0E942E110E948B098C0100D0E3E40F
:1008C000F1E0ADB7BEB71296FC93EE9311970E947C
:1008D00025010F900F90802F0E940B09AFC0D5010A
:1008E0008C91C751DF4F8883C95ED040F40180816D
:1008F000C651DF4F8883CA5ED04014968C91C55193
:10090000DF4F8883CB5ED040C451DF4F1882CC5E6E
:10091000D040CE0187519F4F0E942E118C0100D0F4
:1009200000D0ADB7BEB712963C922E921197149696
:100930009C938E9313970E9425010F900F900F9018
:100940000F90C80161E070E00E943D09A1C0F5016F
:100950008081C751DF4F8883C95ED040D4018C911C
:10096000C651DF4F8883CA5ED0408481C551DF4FB6
:100970008883CB5ED040C451DF4F1882CC5ED0401C
:10098000CE0187519F4F0E942E118C0100D000D0C4
:100990008DE591E0EDB7FEB79283818314830383E5
:1009A0000E9425010F900F900F900F90C8016FEFDC
:1009B0007FEF0E943D096CC0D5018C91C751DF4F7C
:1009C0008883C95ED040C651DF4F1882CA5ED040CE
:1009D000CE0187519F4F0E942E118C0100D000D074
:1009E0008DE691E0EDB7FEB7928381831483038394
:1009F0000E9425010F900F900F900F90C8010E9448
:100A00009A0A0E94630D44C000D0ADB7BEB71296DB
:100A10005C924E9211970E9425010F900F900E94B8
:100A20000E0C0E94630D34C0CE010196BE01655EBE
:100A30007F4F0E94480D2CC000E010E00115110509
:100A400039F100D000D000D0EDB7FEB731960F2EAF
:100A5000F5E3EF2EFF24F02DEC0EFD1EADB7BEB773
:100A60001296FC92EE921197738262821583048330
:100A70000E946B110F900F900F900F90EDB7FEB783
:100A8000F282E1820E9425010F900F900E948D0D4D
:100A9000D60180E090E003C01D921D920196F60100
:100AA00001900020E9F73197EC19FD098E179F0797
:100AB00008F06FCEF1CF10925A021092590288239B
:100AC00031F48BE085BD87B7806887BF07C0813070
:100AD00029F489E085BD87B7806887BF7894089539
:100AE00087B78F7787BF85B58F7785BD0895CF93FB
:100AF000DF93EC018AEF83BD10925A0210925902E3
:100B000080E00E945B058091590290915A028C17F7
:100B10009D07C8F30E947005DF91CF9108951F9241
:100B20000F920FB60F9211248F939F9380915902C9
:100B300090915A02019690935A02809359029F9184
:100B40008F910F900FBE0F901F90189584B3807CEB
:100B500084BB85B38F6385BB089583B382958695E7
:100B6000877080FF0EC024E030E0C90143B350E03D
:100B7000022E02C0559547950A94E2F740FD05C044
:100B800002C085E090E08F5F0895215030408FEFE4
:100B90002F3F380751F780E0089584B38F7384BBEB
:100BA00085B3806C85BB089593B3907C8091E601FA
:100BB000803C39F4903839F081E0903429F080E0BD
:100BC00003C080E001C08FEF9093E601089582B1E9
:100BD000806F82B983B18F7883B982E090E00E9400
:100BE000770583B18F7083B90895FF920F931F9398
:100BF000CF93DF938C016130710521F5181619062A
:100C00000CF047C0C0E0D0E0FF246894F4F883B152
:100C10008F7083B98091E701882321F0880F80933A
:100C2000E70102C0F092E70193B18091E701892BBF
:100C300083B98FE090E00E9477052196C017D10715
:100C400031F727C06115710521F1181619060CF549
:100C5000C0E0D0E00F2EF0E8FF2EF02D83B18F70B2
:100C600083B98091E7018695982F907F19F0809342
:100C7000E70102C0F092E70193B18091E701892B6F
:100C800083B98FE090E00E9477052196C017D107C5
:100C900029F783B18F7083B9DF91CF911F910F91A5
:100CA000FF9008951F920F920FB60F9211248F9309
:100CB0009F9380914102909142020196909342024B
:100CC000809341029F918F910F900FBE0F901F90C4
:100CD00018951F920F920FB60F9211248F939F9326
:100CE0008091570290915802009721F08130910530
:100CF00001F510C086B597B590935E0280935D02B2
:100D00008EB58F7B8EBD81E090E0909358028093EA
:100D100057020FC086B597B590935C0280935B0233
:100D20008EB580648EBD82E090E0909358028093EF
:100D300057029F918F910F900FBE0F901F901895A3
:100D400085EC8EBD87B7846287BF109258021092DF
:100D5000570208958C9A9498949A81E090E00E94AA
:100D6000770594988C980895282F392F220F331FD8
:100D7000C90182959295907F9827807F9827820F4E
:100D8000931F99230CF44F96959587959595879584
:100D900095958795959587959595879508950E9442
:100DA000AA06109258021092570280915702909111
:100DB000580282309105C9F780915B0290915C02E4
:100DC00020915D0230915E02821B930B0E94B4065B
:100DD000089580EC87B987E886B908954F925F92AD
:100DE0006F927F928F929F92AF92BF92CF92DF923B
:100DF000EF92FF920F931F93CF93DF93CDB7DEB7A0
:100E000028970FB6F894DEBF0FBECDBF69837A83F3
:100E10008B839C832D833E834F8358872701380122
:100E2000C601B501A80197010E94CB0D6B017C01A1
:100E30006D817E818F81988529813A814B815C818A
:100E40000E94CB0D9B01AC01C701B6010E94300E80
:100E5000E62EF72E082F192F862F9F2DA02FB12FAA
:100E6000BC01CD012B8D3C8D4D8D5E8D0E94570FA9
:100E70004B015C018E2D9F2DA02FB12FBC01CD0108
:100E800029813A814B815C810E94570F9B01AC0103
:100E9000C301B2010E94CB0D9B01AC01C501B4019D
:100EA0000E94CC0D462F572F682F792FCB01BA0106
:100EB00028960FB6F894DEBF0FBECDBFDF91CF915D
:100EC0001F910F91FF90EF90DF90CF90BF90AF9068
:100ED0009F908F907F906F905F904F900895AF920A
:100EE000BF92CF92DF92EF92FF920F931F93CF9317
:100EF000DF9322E0873C9207D4F100D000D0CDB739
:100F0000DEB721969C01B901882777FD8095982F3F
:100F10000E94CB0EDC01CB0188839983AA83BB831B
:100F200060E070E08AE794E420E030E841E354E4D4
:100F30000F2EF0E0EF2EF0E0FF2EF0E20F2FF1E4A5
:100F40001F2FF02D0F2EF0E0AF2EF0E0BF2EF0E7B8
:100F5000CF2EF1E4DF2EF02D0E94EE060F900F90C1
:100F60000F900F900E94980E862F972FF2C031E0BD
:100F7000853F9307D4F100D000D0CDB7DEB72196DE
:100F80009C01B901882777FD8095982F0E94CB0E90
:100F9000DC01CB0188839983AA83BB8360E070E87E
:100FA00081E394E420E030E04AEF53E40F2EF0E0D8
:100FB000EF2EF0E0FF2EF0E70F2FF1E41F2FF02DC2
:100FC0000F2EF0E0AF2EF0E0BF2EF0EACF2EF1E4CE
:100FD000DF2EF02D0E94EE060F900F900F900F90D5
:100FE0000E94980E862F972FB4C031E0833293076A
:100FF000D4F100D000D0CDB7DEB721969C01B90165
:10100000882777FD8095982F0E94CB0EDC01CB01BD
:1010100088839983AA83BB8360E070E08AEF93E4BE
:1010200020E030E041E953E40F2EF0E0EF2EF0E055
:10103000FF2EF0EA0F2FF1E41F2FF02D0F2EF0E01E
:10104000AF2EF0E0BF2EF0E2CF2EF2E4DF2EF02D37
:101050000E94EE060F900F900F900F900E94980E36
:10106000862F972F76C08D3D9105D4F100D000D00A
:10107000CDB7DEB721969C01B901882777FD809511
:10108000982F0E94CB0EDC01CB0188839983AA8321
:10109000BB8360E070E081E993E420E030E04CE560
:1010A00053E40F2EF0E0EF2EF0E0FF2EF0E20F2FD2
:1010B000F2E41F2FF02D0F2EF0E0AF2EF0E0BF2E48
:1010C000F0E7CF2EF2E4DF2EF02D0E94EE060F9017
:1010D0000F900F900F900E94980E862F972F39C077
:1010E00000D000D0CDB7DEB721969C01B90188278A
:1010F00077FD8095982F0E94CB0EDC01CB01888371
:101100009983AA83BB8360E070E08CE593E420E0E0
:1011100030E044E353E40F2EF0E0EF2EF0E0FF2E3A
:10112000F0E70F2FF2E41F2FF02D0F2EF0E0AF2E7F
:10113000F0E0BF2EF0EACF2EF2E4DF2EF02D0E9479
:10114000EE060F900F900F900F900E94980E862F32
:10115000972FDF91CF911F910F91FF90EF90DF902C
:10116000CF90BF90AF90089597B18F71982B97B99A
:10117000369A3699FECF84B195B10E946F070895D3
:101180008091E4019091E50101979093870080930D
:10119000860080E293E0909385008093840083E250
:1011A00080938B008AE180938A0010928C008FEFED
:1011B00082B90895BC0180E090E00E94C90E2AE93E
:1011C00039E94DE951E40E94570F20E030E048E44E
:1011D00054E40E94CC0D0E949D0E862F972F0895F7
:1011E0000E94DA08909385008093840085E090E067
:1011F0000E94770508951092900082E289B982E0FA
:101200008BB986E18093950088E18AB908955F9B48
:10121000FECF8CB108955D9BFECF8CB90895EF92FF
:10122000FF920F931F93CF93DF93E82FF92FEF01D6
:1012300009900020E9F72197CE1BDF0B1C161D0635
:1012400074F4E82EF92E00E010E0F70181917F019F
:101250000E940B090F5F1F4FC017D107B1F7DF9135
:10126000CF911F910F91FF90EF90089580E090E053
:1012700060E070E00E9408020895EF92FF920F93E1
:101280001F93CF93DF937C01161617061CF4C1E061
:10129000D0E002C0CFEFDFEF0E94A8018C010E94D6
:1012A000EF0286E990E0C89FB001C99F700DD89FFA
:1012B000700D11248AE69FEF9C01C29FC001C39F5D
:1012C000900DD29F900D11240E9408021E141F043D
:1012D000B4F4C0E0D0E0C8010E944F02F801868556
:1012E000978599231CF4909581959F4FC80FD91F1E
:1012F00085E090E00E947705CE15DF0564F30E943B
:101300003609C8010E94AF01DF91CF911F910F9163
:10131000FF90EF900895EF92FF920F931F93CF935A
:10132000DF93EC010E94A8017C010E94EF0288E398
:101330009FEF68E37FEF0E9408021C161D06B4F4BD
:1013400000E010E0C7010E944F02F70184859585F7
:1013500099231CF4909581959F4F080F191F8AE0DF
:1013600090E00E9477050C171D0764F30E94360970
:10137000C7010E94AF0180E090E0DF91CF911F9103
:101380000F91FF90EF900895EF92FF920F931F93AC
:10139000CF93DF937C010E94A801EC010E94EF0231
:1013A00088EC90E068EC70E00E9408021E141F04B4
:1013B0000CF07AC000E010E0CE010E944F0288815C
:1013C00081FD75C080FD76C09A81992309F075C0B2
:1013D0009D81992309F074C09B81992309F073C002
:1013E0009C81992309F072C083FD73C082FD74C093
:1013F00084FD75C08E81882309F074C02C8D3D8DCD
:1014000041E021393407E0F18AA19BA162E08935EE
:101410009607B0F188A199A172E08935970780F10C
:101420004E8D5F8DA1E0453F5A0750F16DB77EB7F5
:101430006A5070400FB6F8947EBF0FBE6DBFEDB717
:10144000FEB731966CE971E0ADB7BEB712967C93EA
:101450006E93119733832283358324835783468386
:10146000918780870E9425016DB77EB7665F7F4FA9
:101470000FB6F8947EBF0FBE6DBF0FEF10E034C003
:101480008C859D8599231CF4909581959F4F080F1D
:10149000191F8AE090E00E9477050E151F050CF4D5
:1014A0008BCF00E010E020C000E010E01DC001E0A4
:1014B00010E01AC002E010E017C003E010E014C012
:1014C00004E010E011C005E010E00EC006E010E0FE
:1014D0000BC007E010E008C008E010E005C009E01C
:1014E00010E002C00AE010E00E943609CE010E941E
:1014F000AF01802F912FDF91CF911F910F91FF901E
:10150000EF90089580ED92E061E070E00E943D0967
:1015100008950E9492000E94C0080E94A6050E94A1
:10152000CD050E94A0060E94E7050E94E9060E94E0
:10153000FB0808952F923F924F925F926F927F9295
:101540008F929F92AF92BF92CF92DF92EF92FF92D3
:101550000F931F93CF93DF93CDB7DEB7C058D7401B
:101560000FB6F894DEBF0FBECDBF5C0180E090E007
:101570000E94F0088CEB92E00E9477050F2EF9ECA8
:101580008F2E9924F02D8C0E9D1E662477244424E2
:10159000552422242A94322CC3010E94F0088AE0A8
:1015A00090E00E9477051A141B04B4F482016201D2
:1015B00072010E94CF06E80EF91E82E00E94B40874
:1015C000C80ED91E81E090E00E9477050F5F1F4F83
:1015D0000A151B0571F702C062017201D401119650
:1015E0007C926E92C701B5010E94BA0FF401738319
:1015F0006283C601B5010E94BA0F75836483378286
:1016000026820894611C711C28E030E0820E931E33
:1016100034EB6316710409F0BFCF8E0101531F4FE5
:1016200020E030E0EE24FF24E3945E010894A11C46
:10163000B11C0F2EFCEC8F2EF1E09F2EF02DF80147
:10164000868197818A3591052CF5848195818A352B
:10165000910504F58081918182179307B9F02F5F7E
:101660003F4F31872087C901880F991F880F991F25
:10167000880F991F49E057E04C0F5D1F840F951F9D
:10168000DC011396FC92EE921297A0C0918780879E
:101690009C019CC0A70141505040C080D180C2161F
:1016A000D30609F093C0C601880F991F880F991FB0
:1016B000880F991FE9E0F7E0EC0FFD1FE80FF91F15
:1016C00055834483828193819A01281B390B378388
:1016D000268382819381840F951F99230CF40196B0
:1016E00095958795FC01EE0FFF1FEE0FFF1FEE0F84
:1016F000FF1F49EC50E04C0F5D1FE40FF51F2481E4
:10170000358182819381820F931F99230CF4019676
:1017100095958795282F392FF601EE0FFF1FEE0FB5
:10172000FF1FEE0FFF1FA9E0B7E0AC0FBD1FEA0FD0
:10173000FB1F8083918386819781833091050CF410
:1017400044C0EDB7FEB73C970FB6F894FEBF0FBE8E
:10175000EDBFADB7BEB71196B282A18213969C922F
:101760008E9212971596DC92CE92149716962C9321
:10177000169717963C931797F601EE0FFF1FEE0F83
:10178000FF1FEE0FFF1F29E037E02C0F3D1FE20F78
:10179000F31F8281938119969C938E93189784816D
:1017A00095811B969C938E931A970E946B114DB74F
:1017B0005EB7445F5F4F0FB6F8945EBF0FBE4DBF7C
:1017C000C5010E940F09960101C096010894E11C11
:1017D000F11C085F1F4F54EBE516F10409F02FCF01
:1017E0008AED91E00E940F09C058D84F0FB6F894C7
:1017F000DEBF0FBECDBFDF91CF911F910F91FF9044
:10180000EF90DF90CF90BF90AF909F908F907F90A0
:101810006F905F904F903F902F9008958F929F927E
:10182000AF92BF92CF92DF92EF92FF920F931F93EE
:10183000CF93DF93CDB7DEB7C05FD5400FB6F89436
:10184000DEBF0FBECDBF80E090E00E94F0088CEBC1
:1018500092E00E9477058E0107531F4FEE24FF246C
:10186000CC24CA94DC2CC7010E94F00885E090E0EB
:101870000E94770582E00E94B408D8011196FC927C
:10188000EE9213969C938E9312971596DC92CE92BD
:1018900014970894E11CF11C0A5F1F4FB4EBEB1680
:1018A000F10409F78E0103531F4F20E030E0EE24CE
:1018B000FF24E3945E010894A11CB11C0F2EFCECE4
:1018C0008F2EF1E09F2EF02DF801848195818639CD
:1018D000910504F58081918182179307B9F02F5FFC
:1018E0003F4F37832683C901880F991F880F991F9F
:1018F000880F991FE9E7F5E0EC0FFD1F8E0F9F1F82
:10190000DC011396FC92EE921297A0C09783868317
:101910009C019CC0A70141505040F801C080D1807B
:10192000C216D30609F092C0C601880F991F880F0E
:10193000991F880F991FE9E7F5E0EC0FFD1FE80FED
:10194000F91F55834483828193819A01281B390BA7
:101950003783268382819381840F951F99230CF40A
:101960000196959587959C01220F331F820F931F37
:10197000880F991F49EC50E04C0F5D1F840F951F95
:10198000DC0112962D913C911397F601EE0FFF1F8B
:10199000EE0FFF1FEE0FFF1F49E755E04C0F5D1FD5
:1019A000E40FF51F31832083868197818330910571
:1019B0000CF44BC08DB79EB70C970FB6F8949EBF32
:1019C0000FBE8DBFADB7BEB71196EDB7FEB7B282F1
:1019D000A18213969C928E9212971596DC92CE92CB
:1019E000149717963C932E931697F601EE0FFF1F50
:1019F000EE0FFF1FEE0FFF1FE40FF51F8281938193
:101A000019969C938E931897848195811B969C932D
:101A10008E931A970E946B112DB73EB7245F3F4FEC
:101A20000FB6F8943EBF0FBE2DBFC5010E940F092F
:101A300000D0ADB7BEB71296BC92AE9211970E947D
:101A400025010F900F90960101C096010894E11CAA
:101A5000F11C0A5F1F4FB4EBEB16F10409F034CF11
:101A60008AED91E00E940F09C051DA4F0FB6F89449
:101A7000DEBF0FBECDBFDF91CF911F910F91FF90C1
:101A8000EF90DF90CF90BF90AF909F908F90089590
:101A90000F931F93CF93DF93EC018B0180E090E0D5
:101AA0000E94C40980E090E06AE170E0AE01980114
:101AB0000E94CF0180E090E00E94C501DF91CF91AC
:101AC0001F910F9108950F931F93CF93DF9300D031
:101AD000CDB7DEB70E94A8018C010E94EF0286E418
:101AE000898385E08A8382E090E061E070E0AE0166
:101AF0004F5F5F4F9E012E5F3F4F0E94CF0182E0FC
:101B000090E00E94C501C8010E94AF010F900F90A4
:101B1000DF91CF911F910F9108950F931F93CF9352
:101B2000DF9300D000D000D0CDB7DEB70E94A8016F
:101B30008C010E94EF02DE011196ECEDF1E083E0F2
:101B400001900D928150E1F7DE011496EFEDF1E086
:101B500083E001900D928150E1F783E090E063E033
:101B600070E0AE014F5F5F4F9E012C5F3F4F0E94C0
:101B7000CF0183E090E00E94C501C8010E94AF013F
:101B800026960FB6F894DEBF0FBECDBFDF91CF9182
:101B90001F910F9108955058BB27AA270ED04DC111
:101BA0003ED130F043D120F031F49F3F11F41EF4C8
:101BB00033C10EF4E095E7FB29C1E92F4FD180F343
:101BC000BA17620773078407950718F071F49EF53A
:101BD00067C10EF4E0950B2EBA2FA02D0B01B901B1
:101BE00090010C01CA01A0011124FF27591B99F093
:101BF000593F50F4503E68F11A16F040A22F232F9F
:101C0000342F4427585FF3CF469537952795A795EE
:101C1000F0405395C9F77EF41F16BA0B620B730B95
:101C2000840BBAF09150A1F0FF0FBB1F661F771F06
:101C3000881FC2F70EC0BA0F621F731F841F48F4BB
:101C4000879577956795B795F7959E3F08F0B3CF41
:101C50009395880F08F09927EE0F9795879508952B
:101C60000CD0EBC0E3D040F0DAD030F021F45F3F8D
:101C700019F0CCC0511115C1CFC0F0D098F3992301
:101C8000C9F35523B1F3951B550BBB27AA27621740
:101C90007307840738F09F5F5F4F220F331F441F85
:101CA000AA1FA9F333D00E2E3AF0E0E830D09150BD
:101CB0005040E695001CCAF729D0FE2F27D0660FAA
:101CC000771F881FBB1F261737074807AB07B0E8E9
:101CD00009F0BB0B802DBF01FF2793585F4F2AF0FF
:101CE0009E3F510568F092C0DCC05F3FECF3983E28
:101CF000DCF3869577956795B795F7959F5FC9F75C
:101D0000880F911D9695879597F90895E1E0660FE4
:101D1000771F881FBB1F621773078407BA0720F05D
:101D2000621B730B840BBA0BEE1F88F7E0950895C6
:101D300004D06894B111B5C0089598D088F09F5729
:101D400090F0B92F9927B751A0F0D1F0660F771F07
:101D5000881F991F1AF0BA95C9F712C0B13081F0E7
:101D60009FD0B1E008959CC0672F782F8827B85F77
:101D700039F0B93FCCF3869577956795B395D9F748
:101D80003EF490958095709561957F4F8F4F9F4F52
:101D90000895E89409C097FB3EF49095809570955E
:101DA00061957F4F8F4F9F4F9923A9F0F92F96E9A7
:101DB000BB279395F695879577956795B795F1111C
:101DC000F8CFFAF4BB0F11F460FF1BC06F5F7F4FB9
:101DD0008F4F9F4F16C0882311F096E911C07723CB
:101DE00021F09EE8872F762F05C0662371F096E8D4
:101DF000862F70E060E02AF09A95660F771F881FA3
:101E0000DAF7880F9695879597F9089597F99F6760
:101E100080E870E060E008959FEF80EC0895002472
:101E20000A941616170618060906089500240A943F
:101E300012161306140605060895092E0394000CC5
:101E400011F4882352F0BB0F40F4BF2B11F460FF54
:101E500004C06F5F7F4F8F4F9F4F089557FD90587D
:101E6000440F551F59F05F3F71F04795880F97FB5E
:101E7000991F61F09F3F79F0879508951216130618
:101E80001406551FF2CF4695F1DF08C01616170647
:101E90001806991FF1CF869571056105089408957C
:101EA000E894BB2766277727CB0197F908950BD0D5
:101EB000C4CFB5DF28F0BADF18F0952309F0A6CF1C
:101EC000ABCF1124EECFCADFA0F3959FD1F3950FCE
:101ED00050E0551F629FF001729FBB27F00DB11DAE
:101EE000639FAA27F00DB11DAA1F649F6627B00D3E
:101EF000A11D661F829F2227B00DA11D621F739F27
:101F0000B00DA11D621F839FA00D611D221F749F34
:101F10003327A00D611D231F849F600D211D822F7B
:101F2000762F6A2F11249F5750408AF0E1F08823C2
:101F30004AF0EE0FFF1FBB1F661F771F881F9150CF
:101F40005040A9F79E3F510570F060CFAACF5F3F88
:101F5000ECF3983EDCF3869577956795B795F79502
:101F6000E7959F5FC1F7FE2B880F911D969587958A
:101F700097F9089597FB092E07260AD077FD04D01C
:101F80000CD006D000201AF4709561957F4F08950B
:101F9000F6F7909581959F4F0895AA1BBB1B51E1C1
:101FA00007C0AA1FBB1FA617B70710F0A61BB70BC9
:101FB000881F991F5A95A9F780959095BC01CD016E
:101FC00008950F931F93CF93DF93689F8001699FBC
:101FD000100D789F100D1124C8010E94FF0FC82F0B
:101FE000D92F209731F08C2F60E070E0A8010E947B
:101FF0004C11CE01DF91CF911F910F910895CF9396
:10200000DF93AC018230910510F442E050E0E091A2
:102010006102F091620220E030E0A0E0B0E024C074
:102020008081918184179507D0F08417950771F40A
:1020300082819381109729F013969C938E93129727
:102040002CC0909362028093610227C02115310554
:1020500019F08217930718F49C01BD01EF019281DA
:102060008381DF01E92FF82F3097D1F62115310553
:10207000F9F0C901841B950B8430910580F48A81A5
:102080009B816115710521F0FB019383828304C05C
:102090009093620280936102FE01329642C0FE017B
:1020A000E80FF91F4193519302979983888339C0B0
:1020B00080915F0290916002009741F48091EA0163
:1020C0009091EB019093600280935F022091E80170
:1020D0003091E9012115310541F42DB73EB78091CA
:1020E000EC019091ED01281B390BE0915F02F0911A
:1020F0006002E217F30798F42E1B3F0B24173507F5
:1021000070F0CA0102962817390748F08E0F9F1FFA
:102110009093600280935F024193519302C0E0E08C
:10212000F0E0CF01DF91CF9108950F931F93CF93EC
:10213000DF939C01009709F48CC0DC011297139681
:102140001C921E9212976091610270916202611559
:10215000710589F48D919C911197820F931F2091A5
:102160005F02309160022817390769F5B093600269
:10217000A0935F026EC0FB0140E050E001C0FC0193
:10218000EA17FB0730F482819381AF010097B9F71A
:102190001FC0E9012297FB83EA8308811981C901E5
:1021A000800F911F8E179F0759F480819181800FB6
:1021B000911F029699838883828193819B838A836E
:1021C0004115510529F4B0936202A093610241C008
:1021D000FA01B383A283C191D191EC0FFD1FAE1719
:1021E000BF0781F4F901929182918C0F9D1F029695
:1021F000DA0111969C938E938281938113969C931E
:102200008E931297E0E0F0E002C0FB01BC01DB011D
:1022100012968D919C9113970097B9F7CB01029676
:102220002D913C911197820F931F20915F02309165
:1022300060022817390769F4309729F41092620276
:102240001092610202C01382128270936002609346
:102250005F02DF91CF911F910F910895FC018827B4
:102260009927E89421912032E9F3293010F02E309B
:10227000C8F32B3241F02D3239F4689404C00E9427
:102280006311820F911D219120532A30C0F31EF457
:10229000909581959F4F0895DC0101C06D93415049
:1022A0005040E0F70895FB01DC018D910190801909
:1022B0000110D9F3990B0895FB01DC0101900D92F7
:1022C0000020E1F708957AE0979F902D879F802D59
:1022D000910D112408950F931F93CF93DF93CDB7E2
:1022E000DEB72E970FB6F894DEBF0FBECDBF0D89B7
:1022F0001E8986E08C831A8309838FEF9FE79E8374
:102300008D83AE01475E5F4FCE0101966F89788D58
:102310000E94D211EF81F885E00FF11F10822E96F6
:102320000FB6F894DEBF0FBECDBFDF91CF911F91E6
:102330000F9108950F931F93CF93DF93CDB7DEB71F
:102340002E970FB6F894DEBF0FBECDBF8C0186E08E
:102350008C831A83098377FF02C060E070E86150C4
:1023600070407E836D83CE010196BA01A9010E945F
:10237000D2114D815E8157FD0AC02F8138854217E9
:1023800053070CF49A01020F131FF80110822E96C6
:102390000FB6F894DEBF0FBECDBFDF91CF911F9176
:1023A0000F9108952F923F924F925F926F927F927A
:1023B0008F929F92AF92BF92CF92DF92EF92FF9255
:1023C0000F931F93CF93DF93CDB7DEB72D970FB643
:1023D000F894DEBF0FBECDBF3C017D876C875A01EC
:1023E000FC0117821682838181FFC8C12E010894E7
:1023F000411C511CF3019381EC85FD8593FD859172
:1024000093FF8191FD87EC87882309F4B3C185325E
:1024100041F493FD859193FF8191FD87EC8785328F
:1024200029F490E0B3010E94EF13E4CFFF24EE24DF
:1024300010E01032B0F48B3269F08C3228F4803224
:1024400051F0833271F40BC08D3239F0803349F48E
:1024500011602CC01260146029C0186027C0106180
:1024600025C017FD2EC0282F20532A3098F416FFC0
:1024700008C08F2D880FF82EFF0CFF0CF80EF20EFF
:1024800015C08E2D880FE82EEE0CEE0CE80EE20E35
:1024900010620CC08E3221F416FD6CC1106406C0AF
:1024A0008C3611F4106802C0883659F4EC85FD852D
:1024B00093FD859193FF8191FD87EC87882309F037
:1024C000B8CF982F9554933018F09052933038F439
:1024D00024E030E0A20EB31E3FE339830FC0833601
:1024E00031F0833781F0833509F05AC022C0F501FD
:1024F0008081898322E030E0A20EB31E21E0C22E4B
:10250000D12C420114C092E0292E312C2A0C3B1C04
:10251000F5018080918016FF03C06F2D70E002C02E
:102520006FEF7FEFC4010E94E4136C0151011F772C
:1025300015C082E0282E312C2A0C3B1CF50180802E
:10254000918016FF03C06F2D70E002C06FEF7FEF28
:10255000C4010E94D9136C011068510113FD1CC005
:1025600006C080E290E0B3010E94EF13EA948E2D42
:1025700090E0C816D906A8F30FC0F40117FD8591A5
:1025800017FF81914F0190E0B3010E94EF13E1101A
:10259000EA940894C108D108C114D10471F7E7C0C6
:1025A000843611F0893651F5F50117FF07C0808197
:1025B0009181A281B38124E030E008C080819181C3
:1025C000AA2797FDA095BA2F22E030E0A20EB31EF5
:1025D000012F0F76B7FF08C0B095A0959095819513
:1025E0009F4FAF4FBF4F0068BC01CD01A2012AE051
:1025F00030E00E941B14D82ED4183FC0853721F438
:102600001F7E2AE030E020C0197F8F36A9F0803786
:1026100020F4883509F0AEC00BC0803721F0883730
:1026200009F0A8C001C0106114FF09C0146007C000
:1026300014FF08C0166006C028E030E005C020E1A5
:1026400030E002C020E132E0F50117FF07C06081F1
:1026500071818281938144E050E006C06081718184
:1026600080E090E042E050E0A40EB51EA2010E947E
:102670001B14D82ED418012F0F7706FF09C00E7F28
:10268000DF1430F404FF06C002FD04C00F7E02C058
:102690001D2D01C01F2D802F90E004FF0CC0FE01F6
:1026A000ED0DF11D2081203311F4097E09C002FFD8
:1026B00006C01E5F05C086789070009709F01F5F06
:1026C000802E992403FD12C000FF0DC0FD2C1E15A5
:1026D00050F4FE0CF11A1E2D06C080E290E0B3010A
:1026E0000E94EF131F5F1E15C0F304C01E1510F4E7
:1026F000E11A01C0EE2484FE0FC080E390E0B30134
:102700000E94EF1382FE1FC081FE03C088E590E0A7
:1027100010C088E790E00DC0C401867890700097E3
:1027200091F081FC02C080E201C08BE207FD8DE2E6
:1027300090E0B3010E94EF1306C080E390E0B30184
:102740000E94EF13FA94DF14C0F3DA94F201ED0D56
:10275000F11D808190E0B3010E94EF13DD20A9F705
:1027600006C080E290E0B3010E94EF13EA94EE20ED
:10277000C1F740CEF3018681978102C08FEF9FEFB2
:102780002D960FB6F894DEBF0FBECDBFDF91CF916F
:102790001F910F91FF90EF90DF90CF90BF90AF907F
:1027A0009F908F907F906F905F904F903F902F9071
:1027B0000895FC010590615070400110D8F7809594
:1027C00090958E0F9F1F0895FC01615070400190FD
:1027D0000110D8F7809590958E0F9F1F08950F9345
:1027E0001F93CF93DF938C01EB018B8181FF1BC083
:1027F00082FF0DC02E813F818C819D812817390772
:1028000064F4E881F9810193F983E88306C0E885DF
:10281000F985802F0995009731F48E819F8101966B
:102820009F838E8302C00FEF1FEFC801DF91CF910E
:102830001F910F910895FA01AA27283051F12031F4
:1028400081F1E8946F936E7F6E5F7F4F8F4F9F4F44
:10285000AF4FB1E03ED0B4E03CD0670F781F891F86
:102860009A1FA11D680F791F8A1F911DA11D6A0F54
:10287000711D811D911DA11D20D009F468943F9107
:102880002AE0269F11243019305D3193DEF6CF0106
:102890000895462F4770405D4193B3E00FD0C9F7CC
:1028A000F6CF462F4F70405D4A3318F0495D31FD39
:1028B0004052419302D0A9F7EACFB4E0A69597958C
:1028C000879577956795BA95C9F700976105710562
:1028D00008959B01AC010A2E0694579547953795AC
:1028E0002795BA95C9F7620F731F841F951FA01D06
:0628F0000895F894FFCFEB
:1028F6002A2A2A2A2A2A2A2A2A2A2A2A2A2A2A2A32
:102906002A2A2A2A0A526F76657220436F6E6E65EE
:1029160063746564210A2A2A2A2A2A2A2A2A2A2A42
:102926002A2A2A2A2A2A2A2A2A2A00466F727761FE
:102936007264004261636B7761726400526F746106
:1029460074652052696768743A20256400526F7472
:10295600617465204C6566743A2025640053636192
:102966006E6E696E670A25642041766572616765D9
:1029760073005363616E6E696E67206661737400DF
:102986004572726F7220233A202564006C65667466
:102996003A2025640A72696768743A2025640A66D3
:1029A600726F6E746C6566743A2025640A66726F7F
:1029B6006E7472696768743A202564006F256964CD
:1029C600256973256965256971007A003F485105B7
:0E29D60005050100F8A7C010000063022000F4
:00000001FF
